:100000000C946D0D0C949C0D0C949C0D0C949C0DFB
:100010000C949C0D0C949C0D0C949C0D0C949C0DBC
:100020000C949C0D0C949C0D0C94E3AC0C9460AD62
:100030000C949C0D0C949C0D0C949C0D0C949C0D9C
:100040000C949C0D0C9481650C949C0D0C949C0D4F
:100050000C949C0D0C949C0D0C9432760C9447AC33
:100060000C949C0D0C949C0D0C949C0D0C949C0D6C
:100070000C949C0D0C949C0D0C949C0D0C949C0D5C
:100080000C949C0D0C949C0D0C949C0D0C949C0D4C
:100090000C949C0D0C949C0D83769176AD76BB767A
:1000A000D576D976DB76DF76084AD73B3BCE016E34
:1000B00084BCBFFDC12F3D6C74319ABD56833DDABF
:1000C0003D00C77F11BED9E4BB4C3E916BAAAABECE
:1000D000000000803F05A84CCDB2D44EB93836A9F7
:1000E000020C50B9918688083CA6AAAA2ABE000034
:1000F00000803F0048617264636F646564204465FA
:100100006661756C742053657474696E6773204CF6
:100110006F616465640053746F7265642073657405
:1001200074696E67732072657472696576656400C0
:100130002044002049002020204D33303120500041
:100140005049442073657474696E67733A00205A8D
:100150000020590020204D323036205800486F6D65
:1001600065206F666673657420286D6D293A0020DE
:100170004500205A00205800204200205400202032
:100180004D323035205300416476616E63656420E2
:100190007661726961626C65733A20533D4D696E98
:1001A00020666565647261746520286D6D2F732902
:1001B0002C20543D4D696E2074726176656C20660A
:1001C0006565647261746520286D6D2F73292C201C
:1001D000423D6D696E696D756D207365676D656E05
:1001E000742074696D6520286D73292C20583D6D2D
:1001F0006178696D756D205859206A65726B202889
:100200006D6D2F73292C20205A3D6D6178696D75B5
:100210006D205A206A65726B20286D6D2F73292C12
:100220002020453D6D6178696D756D2045206A65BA
:10023000726B20286D6D2F73290020540020204DF3
:10024000323034205300416363656C6572617469B8
:100250006F6E3A20533D616363656C6572617469CA
:100260006F6E2C20543D72657472616374206163FB
:1002700063656C65726174696F6E00204500205A79
:100280000020590020204D3230312058004D617837
:10029000696D756D20416363656C65726174696F2A
:1002A0006E20286D6D2F7332293A00204500205AA8
:1002B0000020590020204D3230332058004D617805
:1002C000696D756D2066656564726174657320285B
:1002D0006D6D2F73293A00204500205A00205900E7
:1002E00020204D393220580053746570732070659A
:1002F0007220756E69743A0053657474696E677321
:100300002053746F726564006563686F3A005354DC
:100310004F505045442E20005072696E7465722013
:1003200073746F707065642064756520746F2065E8
:1003300072726F72732E204669782074686520652A
:1003400072726F7220616E6420757365204D393949
:100350003920746F20726573746172742E20285472
:10036000656D706572617475726520697320726560
:100370007365742E205365742069742061667465FA
:10038000722072657374617274696E6729004B49DB
:100390004C4C45442E20005072696E746572206882
:1003A000616C7465642E206B696C6C282920636114
:1003B0006C6C656421006F6B00526573656E643A06
:1003C00020002200556E6B6E6F776E20636F6D6D2F
:1003D000616E643A2022007A5F6D61783A20007A7B
:1003E0005F6D696E3A2000795F6D61783A20007820
:1003F0005F6D61783A20005A3A00593A0020436F05
:10040000756E7420583A2000453A005A3A00593A1D
:1004100000583A004649524D574152455F4E414DB2
:10042000453A4D61726C696E2056313B20537072B3
:10043000696E7465722F6772626C206D6173687586
:100440007020666F722067656E36204649524D57A0
:100450004152455F55524C3A68747470733A2F2F6D
:100460006769746875622E636F6D2F4572696B5A88
:10047000616C6D2F4D61726C696E2F2050524F541C
:100480004F434F4C5F56455253494F4E3A312E30F1
:10049000204D414348494E455F545950453A5265B5
:1004A0006420526F626F742045585452554445522F
:1004B0005F434F554E543A310A0052656420526FE3
:1004C000626F74204F66662E0042656420646F6E12
:1004D000652E0020423A0020453A00543A00426519
:1004E000642048656174696E672E004865617469AF
:1004F0006E6720646F6E652E0020573A0020453AE3
:1005000000543A0048656174696E672E2E2E0020F3
:1005100042403A0020403A00202F003A0020540088
:10052000202F0020423A00202F006F6B20543A0009
:100530002569206D696E2C2025692073656300454F
:100540006E642066696C65206C697374004265672F
:10055000696E2066696C65206C697374004E6F204B
:100560006D6F76652E00526573756D696E672070CC
:1005700072696E74005761697420666F72207573BA
:1005800065722E2E2E00536C6565702E2E2E002067
:1005900000256920686F757273202569206D696E6A
:1005A0007574657300446F6E65207072696E74694E
:1005B0006E672066696C650053544F505045442E59
:1005C00020005072696E7465722073746F7070656C
:1005D000642064756520746F206572726F72732E6B
:1005E0002046697820746865206572726F72206198
:1005F0006E6420757365204D39393920746F20720F
:100600006573746172742E202854656D7065726113
:10061000747572652069732072657365742E20533A
:1006200065742069742061667465722072657374E4
:10063000617274696E6729006F6B004E6F204C69A0
:100640006E65204E756D62657220776974682063EF
:100650006865636B73756D2C204C617374204C69F5
:100660006E653A20004E6F20436865636B73756D4D
:100670002077697468206C696E65206E756D62659F
:10068000722C204C617374204C696E653A200063B3
:100690006865636B73756D206D69736D61746368F4
:1006A0002C204C617374204C696E653A20004C69B3
:1006B0006E65204E756D626572206973206E6F7471
:1006C000204C617374204C696E65204E756D6265B7
:1006D000722B312C204C617374204C696E653A206A
:1006E000004D31313000446F6E6520736176696E64
:1006F000672066696C652E006F6B004D32390020F3
:1007000020506C616E6E65724275666665724279E4
:100710007465733A20002046726565204D656D6FE3
:1007200072793A20004A756E2020382032303136F6
:1007300000436F6D70696C65643A2000412E20574C
:10074000617264202D204B6F7373656C00207C20D8
:10075000417574686F723A20004A756E2020382007
:10076000323031362031303A34343A303300204C94
:1007700061737420557064617465643A2000312E91
:10078000302E30004D61726C696E200020536F6610
:1007900074776172652052657365740020576174C7
:1007A0006368646F67205265736574002042726FDE
:1007B000776E206F757420526573657400204578DC
:1007C0007465726E616C20526573657400506F774A
:1007D00065725570007374617274002200656E71E9
:1007E0007565696E672022002200656E7175656906
:1007F0006E672022000101010000A0400000A0401F
:100800000000A040000020430000204300004843B7
:100810000000000000000000000048430000A0426B
:100820000000A042000048430000A0C20000A0C297
:10083000000000006563686F3A004572726F723A9B
:10084000007C3C3E5E2B3D3F2F5B5D3B2C2A225CB7
:10085000004D383420582059205A20450043616EFD
:100860006E6F7420656E7465722073756264697250
:100870003A20004D3234004D32332025730061752B
:10088000746F25692E67006572726F7220777269C6
:1008900074696E6720746F2066696C65004E6F74B2
:1008A000205344207072696E74696E67002F005384
:1008B00044207072696E74696E6720627974652075
:1008C000002E0044656C6574696F6E206661696C0A
:1008D00065642C2046696C653A200046696C652089
:1008E00064656C657465643A002E006F70656E20F7
:1008F0006661696C65642C2046696C653A20005716
:10090000726974696E6720746F2066696C653A203D
:10091000002E006F70656E206661696C65642C2026
:1009200046696C653A20002E006F70656E20666126
:10093000696C65642C2046696C653A200046696CD8
:10094000652073656C6563746564002053697A651E
:100950003A200046696C65206F70656E65643A20C8
:10096000002E006F70656E206661696C65642C20D6
:1009700046696C653A200053442063617264206FBD
:100980006B006F70656E526F6F74206661696C6585
:100990006400766F6C756D652E696E697420666192
:1009A000696C656400534420696E697420666169EE
:1009B0006C006563686F3A004572726F723A00208E
:1009C000636F6C6420657874727573696F6E2070E4
:1009D000726576656E746564006563686F3A00657C
:1009E0006E6473746F7073206869743A205A0020C3
:1009F0005A3A00656E6473746F7073206869743A54
:100A000020590020593A00656E6473746F7073202A
:100A10006869743A20580020583A00656E6473740F
:100A20006F7073206869743A200024F4D43050C386
:100A30008E20C2A24017828B7011127A910D816CA8
:100A4000D90AA861E108C7586607615143061E4BE1
:100A50005D05C145A7041A411104093D9803713988
:100A600031034036DB0265339102D4305402802ECC
:100A70001D02632CEE01752AC501B028A0011027C4
:100A800081018F2564012B244B01E0223401AC212C
:100A90001F018D200D01801FFC00841EED00971D9D
:100AA000DF00B81CD200E61BC600201BBC00641A85
:100AB000B200B219A8000A19A0006A189900D1174B
:100AC000910040178B00B516840031167E00B315D7
:100AD00079003A157300C7146F0058146A00EE13BA
:100AE00066008813630025135E00C7125B006C125A
:100AF000570015125400C111510070114F002111FF
:100B00004B00D61049008D104700461044000210DB
:100B10004200C00F4000800F3E00420F3C00060F15
:100B20003B00CB0E3800930E37005C0E3500270ECD
:100B30003400F30D3200C10D3100900D3000600D16
:100B40002E00320D2D00050D2C00D90C2B00AE0C03
:100B50002900850C29005C0C2700350C27000E0CA1
:100B60002600E80B2400C40B2400A00B23007D0BFF
:100B700023005A0B2100390B2100180B2000F80A22
:100B80001F00D90A1E00BB0A1E009D0A1D00800A14
:100B90001D00630A1C00470A1B002C0A1B00110AD7
:100BA0001A00F7091A00DD091900C4091900AB0978
:100BB0001900920917007B091800630917004C09F6
:100BC000160036091600200916000A091500F50856
:100BD0001500E0081400CC081400B8081400A4089C
:100BE0001400900813007D0812006B0813005808C9
:100BF00012004608120034081100230811001208E0
:100C0000110001081100F0071000E0071000D007E4
:100C10001000C0071000B0070F00A10710009107D7
:100C20000E0083070F0074070F0065070E005707BB
:100C30000E0049070E003B070D002E070E0020078F
:100C40000D0013070D0006070D00F9060C00ED0658
:100C50000D00E0060C00D4060C00C8060C00BC0613
:100C60000C00B0060C00A4060B0099060C008D06C3
:100C70000B0082060B0077060B006C060B0061066A
:100C80000A0057060B004C060A0042060A00380606
:100C90000A002E060A0024060A001A060A00100698
:100CA000090007060A00FD050900F4050900EB0527
:100CB0000900E2050900D9050900D0050900C705AA
:100CC0000900BE050900B5050800AD050800A50529
:100CD00009009C050800940508008C05080084059F
:100CE00008007C050800740508006C050700650510
:100CF00008005D050700560508004E05070047057A
:100D000007004005080038050700310507002A05DF
:100D10000700230507001C050600160507000F0540
:100D200007000805060002050700FB040600F5049D
:100D30000700EE040600E8040600E2040700DB04F6
:100D40000600D5040600CF040600C9040600C3044B
:100D50000600BD040600B7040600B1040500AC049B
:100D60000600A6040600A00405009B0406009504E6
:100D70000500900406008A0405008504050080042F
:100D800006007A04050075040500700405006B0474
:100D9000050066040500610405005C0405005704B5
:100DA0000500520405004D040500480405004304F5
:100DB00005003E0404003A04050035040500300433
:100DC00004002C04050027040400230405001E046D
:100DD00004001A04040016040500110404000D04A4
:100DE0000400090405000404040000040400FC03DA
:100DF0000400F8030400F4030400F0030400EC030F
:100E00000400E8030400E4030400E0030400DC033E
:100E10000400D8030400D4030400D0030400CC036E
:100E20000400C8030300C503030024F404D9201BF5
:100E3000C40C5C0E9804C4095F0265077101F405D7
:100E4000F900FB04B30048048700C103690058039C
:100E5000550003034500BE023A00840231005302EC
:100E60002A002902250004022000E4011C00C80118
:100E70001900AF01170098011400840113007101DB
:100E800010006101100051010E0043010D003601F8
:100E90000B002B010B0020010B00150109000C01B8
:100EA000090003010800FB000800F3000800EB0044
:100EB0000700E4000600DE000600D8000600D200AD
:100EC0000600CC000500C7000500C2000500BD00FB
:100ED0000400B9000400B5000400B1000400AD0036
:100EE0000400A9000400A5000300A20003009F0065
:100EF00004009B000300980003009500020093008B
:100F00000300900003008D0002008B0003008800A6
:100F100002008600020084000300810002007F00BE
:100F200002007D0002007B000200790002007700D1
:100F300001007600020074000200720001007100DE
:100F400002006F0002006D0001006C0002006A00E8
:100F500001006900020067000100660001006500F1
:100F600001006400020062000100610001006000F5
:100F700001005F0002005D0001005C0001005B00F9
:100F800001005A00010059000100580001005700FB
:100F900001005600010055000100540001005300FB
:100FA00000005300010052000100510001005000F8
:100FB00001004F0001004E0000004E0001004D00F6
:100FC00001004C0001004B0000004B0001004A00F2
:100FD00001004900010048000000480001004700EE
:100FE00001004600000046000100450000004500E9
:100FF00001004400010043000000430001004200E2
:1010000000004200010041000000410001004000DA
:1010100001003F0000003F0001003E0000003E00D4
:1010200001003D0000003D0001003C0000003C00CC
:1010300000003C0001003B0000003B0001003A00C2
:1010400000003A00010039000000390001003800BA
:1010500000003800000038000100370000003700B1
:1010600001003600000036000000360001003500A7
:10107000000035000000350001003400000034009D
:101080000000340001003300000033000000330092
:101090000100320000003200000032000100310087
:1010A000000031000000310001003000000030007D
:1010B0000000300001002F0000002F0000002F0072
:1010C00000002F0001002E0000002E0000002E0066
:1010D00001002D0000002D0000002D0000002D005B
:1010E00001002C0000002C0000002C0000002C004F
:1010F00001002B0000002B0000002B0000002B0043
:1011000001002A0000002A0000002A0000002A0036
:10111000010029000000290000002900000029002A
:10112000000029000100280000002800000028001D
:101130000000280000002800010027000000270010
:101140000000270000002700000027000100260003
:1011500000002600000026000000260000002600F7
:1011600001002500000025000000250000002500EA
:1011700000002500000025000100240000002400DC
:1011800000002400000024000000240001002300CF
:1011900000002300000023000000230000002300C3
:1011A00000002300000023000100220000002200B4
:1011B00000002200000022000000220000002200A7
:1011C000010021000000210000002100000021009A
:1011D000000021000000210000002100010020008B
:1011E000000020000000200000002000000020007F
:1011F00000002000000020000000200001001F006F
:1012000000001F0000001F0000001F0000001F0062
:1012100000001F0000001F0001001E0000001E0053
:1012200000001E0000001E0000006563686F3A00A9
:101230004572723A204D415854454D502042454424
:101240000054656D706572617475726520686561C2
:10125000746564206265642073776974636865648B
:10126000206F66662E204D415854454D50207472B3
:1012700069676765726564202121004572723A20B2
:101280004D494E54454D50003A204578747275646E
:101290006572207377697463686564206F66662E73
:1012A000204D494E54454D502074726967676572F0
:1012B00065642021004572723A204D415854454DD5
:1012C00050003A20457874727564657220737769AE
:1012D0007463686564206F66662E204D41585445DE
:1012E0004D50207472696767657265642021002023
:1012F0002D20496E76616C6964206578747275641E
:101300006572206E756D626572202100504944201F
:101310004175746F74756E652066696E6973686572
:1013200064212050757420746865204B702C204B0C
:101330006920616E64204B6420636F6E7374616E0C
:10134000747320696E746F20436F6E66696775727F
:101350006174696F6E2E6800504944204175746F46
:1013600074756E65206661696C6564212074696DB1
:10137000656F75740020403A006F6B20543A006F1F
:101380006B20423A00504944204175746F74756E69
:1013900065206661696C6564212054656D706572B5
:1013A000617475726520746F6F20686967680020CA
:1013B0004B643A2000204B693A2000204B703A20C1
:1013C0000020436C6173696320504944200020541D
:1013D000753A2000204B753A2000206D61783A2044
:1013E00000206D696E3A200020643A200020626976
:1013F00061733A20004572726F723A0070012C01DD
:1014000090012701B0012201C0011D01F001180166
:101410001002130130020E01600209019002040162
:10142000C002FF000003FA004003F5008003F00053
:10143000D003EB002004E6007004E100E004DC00CF
:101440004005D700C005D2004006CD00D006C80038
:101450008007C3003008BE00F008B900C009B4001E
:10146000B00AAF00B00BAA00D00CA500000EA0007F
:10147000500F9B00C01096005012910000148C0079
:10148000C0158700B0178200B0197D00D01B78000E
:10149000001E730040206E0090226900F02464005A
:1014A00040275F0090295A00E02B5500102E500075
:1014B00020304B0010324600E033410090353C00B4
:1014C0001037370070383200A0392D00B03A2800AC
:1014D000A03B2300603C1E00103D1900903D14000D
:1014E000103E0F00703E0A00C03E0500003F0000A5
:1014F0002D2D3A2D2D002D2D2D0053440020590067
:10150000012000012000466C6F7700466C6F770069
:1015100046616E2073706565640046616E2073706D
:101520006565640042656400426564004E6F7A7AC6
:101530006C65004E6F7A7A6C650053706565640067
:101540005370656564004D61696E00580059005A1A
:1015500000457874727564657200457874727564BC
:101560006572004D6F7665205A004D6F7665205983
:10157000004D6F76652058004D6F76652041786983
:1015800073004D6F766520302E316D6D004D6F7696
:101590006520316D6D004D6F76652031306D6D00C9
:1015A00050726570617265004D6F76652041786993
:1015B0007300436F6F6C646F776E0050726568657F
:1015C0006174204142530050726568656174205017
:1015D0004C4100473238004175746F20486F6D658B
:1015E000004D38340044697361626C652053746542
:1015F0007070657273004D61696E0053746F72652F
:10160000206D656D6F72790042656400426564000B
:101610004E6F7A7A6C65004E6F7A7A6C650046611F
:101620006E2073706565640046616E207370656539
:10163000640054656D7065726174757265005374F1
:101640006F7265206D656D6F72790042656400424E
:101650006564004E6F7A7A6C65004E6F7A7A6C65BD
:101660000046616E2073706565640046616E20738C
:10167000706565640054656D70657261747572653E
:1016800000507265686561742041425320436F6E5B
:1016900066005072656865617420504C4120436F4C
:1016A0006E66005049442D43005049442D4300507C
:1016B00049442D44005049442D44005049442D498B
:1016C000005049442D49005049442D500050494490
:1016D0002D500020022046616374002002204661E4
:1016E0006374002002204D6178002002204D617853
:1016F000002002204D696E002002204D696E004FCF
:101700006666004F6E20004F6666004F6E200041F7
:1017100075746F74656D700046616E2073706565D9
:10172000640046616E207370656564004265640004
:10173000426564004E6F7A7A6C65004E6F7A7A6CFF
:101740006500436F6E74726F6C00457374657073DF
:101750002F6D6D004573746570732F6D6D005A7336
:10176000746570732F6D6D005A73746570732F6D8F
:101770006D005973746570732F6D6D0059737465C6
:1017800070732F6D6D005873746570732F6D6D00DD
:101790005873746570732F6D6D00412D726574728E
:1017A00061637400412D7265747261637400416DF0
:1017B0006178206500416D6178206500416D617838
:1017C000207A00416D6178207A00416D617820793E
:1017D00000416D6178207900416D61782078004189
:1017E0006D61782078005654726176206D696E00C4
:1017F0005654726176206D696E00566D696E0056A2
:101800006D696E00566D6178206500566D617820B7
:101810006500566D6178207A00566D6178207A00F7
:10182000566D6178207900566D6178207900566D8B
:101830006178207800566D617820780056652D6AB1
:1018400065726B0056652D6A65726B00567A2D6A5B
:1018500065726B00567A2D6A65726B005678792D29
:101860006A65726B005678792D6A65726B00416308
:1018700063656C00416363656C00436F6E74726FE7
:101880006C00526573746F7265204661696C736198
:101890006665004C6F6164206D656D6F72790053F1
:1018A000746F7265206D656D6F7279004D6F74692C
:1018B0006F6E0054656D7065726174757265004D70
:1018C00061696E004D383420582059205A20450057
:1018D0004D3234004D323320257300052E2E000486
:1018E00052656672657368004D61696E004D3231F4
:1018F00000496E69742E2053442D43617264004E7A
:101900006F2043617264004D3231004368616E673D
:10191000652053442D43617264005072696E7420D7
:1019200066726F6D2053440053746F70205072695B
:101930006E7400526573756D65205072696E740027
:101940005061757365205072696E7400436F6E74D8
:10195000726F6C00507265706172650054756E65CF
:1019600000496E666F2073637265656E000129021F
:1019700029042908291029202940298029012C021D
:101980002C01260226042608261026202640268022
:1019900026402C802C01230223042308231023201B
:1019A000234023802301200220042008201020202F
:1019B0002040208020102C202C012F022F042F08E3
:1019C0002F102F202F402F802F000100007A1A1295
:1019D00000020000371A4300030000331A04010319
:1019E0000904191A1802030904011A160303090449
:1019F000F3190C0C033100320033003400350000C1
:101A00000016035500530042002000530065007289
:101A100000690061006C0000001803540065006557
:101A2000006E00730079006400750069006E006F3D
:101A30000000000403090409024300020100C0324F
:101A40000904000001020201000524001001052420
:101A50000100010424020605240600010705820393
:101A600008004009040100020A0000000705030203
:101A7000400000070584024000001201000202003D
:101A80000020C01683040001010203010001C1020D
:101A90000180360181364E414E494E495459494ED6
:101AA00046CDCCCC3D0AD7233C17B7D13877CC2BC9
:101AB000329595E6241FB14F0A000020410000C86E
:101AC0004200401C4620BCBE4CCA1B0E5AAEC59DEF
:101AD00074002924F89901B22D2411241FBECFEFE0
:101AE000D0E2DEBFCDBF13E0A0E0B1E0E2ECFAE768
:101AF00001E00BBF02C007900D92A038B107D9F7E3
:101B000020E1A0E8B3E001C01D92AA3BB207E1F7D3
:101B10001AE1C8EDDAE100E006C022970109FE01F2
:101B20000BBF0E9418B7C23DD10780E00807A9F794
:101B30000E9427B00C9450BD0C940000DB010D9066
:101B40000020E9F7AD0141505109461B570BDC015C
:101B5000ED91FC910280F381E02D0994CF93DF9306
:101B60001F92CDB7DEB76983DC01ED91FC91028055
:101B7000F381E02D41E050E0BE016F5F7F4F09959A
:101B80000F90DF91CF910895EF92FF920F931F93E3
:101B9000CF93DF931F92CDB7DEB78C017B01460F49
:101BA000F70161917F01F8018081918149830E9451
:101BB00099BCF8018081918101969183808349814C
:101BC0004E11EECF0F90DF91CF911F910F91FF90AB
:101BD000EF900895EF92FF920F931F93CF93DF93AF
:101BE0001F92CDB7DEB78C017B01460FF8018081D3
:101BF000918149830E9491BCF70181937F01F80193
:101C00008081918101969183808349814E11EECF2D
:101C10000F90DF91CF911F910F91FF90EF9008955A
:101C20000F931F93CF93DF93CDB7DEB72C970FB6EB
:101C3000F894DEBF0FBECDBF80E390E3A0E3B0E039
:101C40008D839E83AF83B88704E610E01C870B87E3
:101C500044E0BE016B5F7F4FCE010B9695DF40E104
:101C600060E87FE0CE010B968FDF40E160E97FE026
:101C7000CE010B9689DF40E160E77FE0CE010B9655
:101C800083DF44E068E67FE0CE010B967DDF44E031
:101C900064E67FE0CE010B9677DF44E06CE67FE000
:101CA000CE010B9671DF44E064E57FE0CE010B9638
:101CB0006BDF44E060EA7FE0CE010B9665DF44E035
:101CC00060E67FE0CE010B965FDF44E06CE57FE0ED
:101CD000CE010B9659DF44E068E57FE0CE010B961C
:101CE00053DF4CE067E276E0CE010B964DDF42E039
:101CF0006DE970E1CE010B9647DF42E06BE970E1E0
:101D0000CE010B9641DF42E069E970E1CE010B960E
:101D10003BDF42E067E970E1CE010B9635DF42E040
:101D200065E970E1CE010B962FDF42E063E970E1D7
:101D3000CE010B9629DF44E06CE671E0CE010B96F4
:101D400023DF44E068E671E0CE010B961DDF44E03E
:101D500064E671E0CE010B9617DF80E290E09A878F
:101D6000898742E0BE01675F7F4FCE010B960CDF93
:101D700086E590E3A8E3B0E089839A83AB83BC83D4
:101D80001C870B8744E0BE016F5F7F4FCE010B962F
:101D9000FBDEE8E0F3E064918F01662341F08EEA18
:101DA00090E1DCDE0F5F1F4FF8016491F6CFE8EFA2
:101DB000F2E064918F01662341F08EEA90E1CEDE7D
:101DC0000F5F1F4FF8016491F6CF6AE08EEA90E151
:101DD000C5DE2C960FB6F894DEBF0FBECDBFDF91E7
:101DE000CF911F910F9108950F931F93CF93DF937E
:101DF000C8E0D3E0FE0164918E01662341F08EEAD3
:101E000090E1ACDE0F5F1F4FF8016491F6CFE8EE72
:101E1000F2E064918F01662341F08EEA90E19EDE4C
:101E20000F5F1F4FF8016491F6CF6AE08EEA90E1F0
:101E300095DEFE01649108E013E0662341F08EEA2E
:101E400090E18CDE0F5F1F4FF8016491F6CF409157
:101E5000800F5091810F6091820F7091830F80EEFF
:101E600092E02AD64091840F5091850F6091860FA1
:101E70007091870F8DED92E01FD64091880F5091A1
:101E8000890F60918A0F70918B0F8AED92E014D6C2
:101E900040918C0F50918D0F60918E0F70918F0F2C
:101EA00087ED92E009D669E273E08EEA90E146DEC2
:101EB0006AE08EEA90E152DEFE01649108E013E0F0
:101EC000662341F08EEA90E149DE0F5F1F4FF80173
:101ED0006491F6CFEDEBF2E064918F01662341F05F
:101EE0008EEA90E13BDE0F5F1F4FF8016491F6CF61
:101EF0006AE08EEA90E132DEFE01649108E013E0D0
:101F0000662341F08EEA90E129DE0F5F1F4FF80152
:101F10006491F6CF4091900F5091910F6091920F84
:101F20007091930F84EB92E0C7D54091940F50913C
:101F3000950F6091960F7091970F81EB92E0BCD551
:101F40004091980F5091990F60919A0F70919B0F4B
:101F50008EEA92E0B1D540919C0F50919D0F609117
:101F60009E0F70919F0F8BEA92E0A6D569E273E015
:101F70008EEA90E1E3DD6AE08EEA90E1EFDDFE01BA
:101F8000649108E013E0662341F08EEA90E1E6DD1B
:101F90000F5F1F4FF8016491F6CFEDE8F2E0649116
:101FA0008F01662341F08EEA90E1D8DD0F5F1F4F6D
:101FB000F8016491F6CF6AE08EEA90E1CFDDFE0190
:101FC000649108E013E0662341F08EEA90E1C6DDFB
:101FD0000F5F1F4FF8016491F6CF4091700F509141
:101FE000710F6091720F7091730F84E892E083D546
:101FF0004091740F5091750F6091760F7091770F2B
:1020000081E892E078D54091780F5091790F6091F6
:102010007A0F70917B0F8EE792E06DD540917C0F27
:1020200050917D0F60917E0F70917F0F8BE792E052
:1020300062D569E273E08EEA90E180DD6AE08EEAC3
:1020400090E18CDDFE01649108E013E0662341F02D
:102050008EEA90E183DD0F5F1F4FF8016491F6CFA8
:10206000E6E4F2E064918F01662341F08EEA90E1AC
:1020700075DD0F5F1F4FF8016491F6CF6AE08EEABD
:1020800090E16CDDFE01649108E013E0662341F00D
:102090008EEA90E163DD0F5F1F4FF8016491F6CF88
:1020A0004091680F5091690F60916A0F70916B0FAA
:1020B0008DE392E001D54091640F5091650F6091DE
:1020C000660F7091670F8AE392E0F6D469E273E0DD
:1020D0008EEA90E133DD6AE08EEA90E13FDDFE01B9
:1020E000649108E013E0662341F08EEA90E136DD6A
:1020F0000F5F1F4FF8016491F6CFE7E8F1E06491BC
:102100008F01662341F08EEA90E128DD0F5F1F4FBB
:10211000F8016491F6CF6AE08EEA90E11FDDFE01DE
:10212000649108E013E0662341F08EEA90E116DD49
:102130000F5F1F4FF8016491F6CF40916C0F5091E3
:102140006D0F60916E0F70916F0F8EE791E0B4D4B8
:102150004091540F5091550F6091560F7091570F49
:102160008BE791E0A9D44091A00F5091A10F60910D
:10217000A20F7091A30F88E791E0BDD44091600F4A
:102180005091610F6091620F7091630F85E791E04C
:1021900093D440915C0F50915D0F60915E0F7091F0
:1021A0005F0F82E791E088D44091580F5091590F0A
:1021B00060915A0F70915B0F8FE691E07DD469E2D8
:1021C00073E08EEA90E1BADC6AE08EEA90E1C6DC68
:1021D000FE01649108E013E0662341F08EEA90E18D
:1021E000BDDC0F5F1F4FF8016491F6CFEDE5F1E024
:1021F00064918F01662341F08EEA90E1AFDC0F5FBE
:102200001F4FF8016491F6CF6AE08EEA90E1A6DCF8
:10221000FE01649108E013E0662341F08EEA90E14C
:102220009DDC0F5F1F4FF8016491F6CF40912706A8
:10223000509128066091290670912A0684E591E064
:102240003BD440912B0650912C0660912D06709145
:102250002E0681E591E030D440912F065091300652
:1022600060913106709132068EE491E025D469E2E6
:1022700073E08EEA90E162DC6AE08EEA90E16EDC67
:10228000FE01649108E013E0662341F08EEA90E1DC
:1022900065DC0F5F1F4FF8016491F6CFE0E4F1E0D9
:1022A00064918F01662341F08EEA90E157DC0F5F65
:1022B0001F4FF8016491F6CF6AE08EEA90E14EDCA0
:1022C000FE01649108E013E0662341F08EEA90E19C
:1022D00045DC0F5F1F4FF8016491F6CF40916C0110
:1022E00050916D0160916E0170916F0186E391E0F4
:1022F000E3D3609168017091690180916A019091C6
:102300006B010E946777AB01BC0183E391E0D4D3FA
:1023100060916401709165018091660190916701FF
:102320000E947377AB01BC0180E391E0C5D369E201
:1023300073E08EEA90E102DC6AE08EEA90E1DF91E0
:10234000CF911F910F910ACCAF92BF92CF92DF92A3
:10235000EF92FF920F931F93CF93DF93CDB7DEB72A
:10236000E0970FB6F894DEBF0FBECDBF80E1EFE877
:10237000F1E0DE01919601900D928A95E1F780E1FE
:10238000EFE9F1E0DE01519601900D928A95E1F7B7
:1023900080E1EFEAF1E0DE01119601900D928A955D
:1023A000E1F76E0181E2C80ED11C80E8E82E8FE0D3
:1023B000F82E8E010F5E1F4F60E97FE0AE014F5F88
:1023C0005F4F90E7A92E9FE0B92E20E030E0F601A4
:1023D00081919191A191B1916F01F70181939193B5
:1023E000A193B1937F01F80181919191A191B19154
:1023F0008F01FB0181939193A193B193BF01FA01E6
:1024000081919191A191B191AF01F5018193919346
:10241000A193B1935F012F5F3F4F24303105B9F68F
:102420000E946E6480E090E8ABE3B5E48093680FAF
:102430009093690FA0936A0FB0936B0F8093640F12
:102440009093650FA093660FB093670F10926C0F77
:1024500010926D0F10926E0F10926F0F80E29EE43B
:10246000A0E0B0E08093A00F9093A10FA093A20FE3
:10247000B093A30F1092540F1092550F1092560F55
:102480001092570F80E090E0A0EAB1E48093600FD3
:102490009093610FA093620FB093630F80935C0FD2
:1024A00090935D0FA0935E0FB0935F0F80E090E07C
:1024B000A0EAB0E48093580F9093590FA0935A0F5D
:1024C000B0935B0F10922F061092300610923106D7
:1024D0001092320610922B0610922C0610922D06A6
:1024E00010922E06109227061092280610922906A6
:1024F00010922A0688EC90E090939E1080939D1095
:1025000086E490E090939C1080939B1086E990E085
:1025100090939A108093991021EE30E030939810A8
:10252000209397102AE530E0309396102093951071
:10253000909394108093931084EA90E7A3E6B2E41A
:1025400080936C0190936D01A0936E01B0936F0125
:102550006DEC7CEC84EE90E40E94617760936801FE
:102560007093690180936A0190936B016EEA77E43E
:1025700082EE92E40E946D7760936401709365012E
:1025800080936601909367010E94586E80E090E00E
:10259000A0E8BFE38093600190936101A093620182
:1025A000B0936301E8E0F3E064918F01662341F0AA
:1025B0008EEA90E1D3DA0F5F1F4FF8016491F6CFF6
:1025C000E4EFF0E064918F01662341F08EEA90E140
:1025D000C5DA0F5F1F4FF8016491F6CF6AE08EEA0B
:1025E00090E1E0960FB6F894DEBF0FBECDBFDF914D
:1025F000CF911F910F91FF90EF90DF90CF90BF9000
:10260000AF90ACCA0F931F93CF93DF93CDB7DEB7D4
:102610002C970FB6F894DEBF0FBECDBF84E690E0D6
:102620009C878B8786E590E3A8E3B0E089839A8353
:10263000AB83BC8344E0BE016B5F7F4FCE010B9642
:10264000C9DA43E050E0BE016B5F7F4FCE010196D7
:102650000E9458BA892B09F0AAC040E160E87FE0E7
:10266000CE010B96B7DA40E160E97FE0CE010B9630
:10267000B1DA40E160E77FE0CE010B96ABDA0E9471
:102680006E6444E068E67FE0CE010B96A3DA44E096
:1026900064E67FE0CE010B969DDA44E06CE67FE0D5
:1026A000CE010B9697DA44E064E57FE0CE010B960D
:1026B00091DA44E060EA7FE0CE010B968BDA44E0E9
:1026C00060E67FE0CE010B9685DA44E06CE57FE0C2
:1026D000CE010B967FDA44E068E57FE0CE010B96F1
:1026E00079DA4CE067E276E0CE010B9673DA42E0ED
:1026F0006DE970E1CE010B966DDA42E06BE970E1B5
:10270000CE010B9667DA42E069E970E1CE010B96E3
:1027100061DA42E067E970E1CE010B965BDA42E0F4
:1027200065E970E1CE010B9655DA42E063E970E1AC
:10273000CE010B964FDA44E06CE671E0CE010B96C9
:1027400049DA44E068E671E0CE010B9643DA44E0F2
:1027500064E671E0CE010B963DDA42E0BE01675FB0
:102760007F4FCE010B9636DA0E94586EE8E0F3E018
:1027700064918F01662341F08EEA90E1EFD90F5FFB
:102780001F4FF8016491F6CFE6E1F1E064918F010B
:10279000662341F08EEA90E1E1D90F5F1F4FF80107
:1027A0006491F6CF6AE08EEA90E1D8D901C0CCDD21
:1027B0001BDB2C960FB6F894DEBF0FBECDBFDF91AA
:1027C000CF911F910F910895FC01659175918591AD
:1027D000949108952F923F924F925F926F927F92C1
:1027E0008F929F92AF92BF92CF92DF92EF92FF9221
:1027F0000F931F93CF93DF9300D000D0CDB7DEB7F8
:10280000FC01EB50F84F14919C01220F331F220F53
:10281000331F3C832B832D5C394F4901F901108212
:102820001182128213822FE336E04BE356E067E316
:1028300076E083E396E00E949C638B819C818C5FB1
:10284000974FC2DF6B017C01612F772767FD709581
:10285000872F972F0E9495B32B013C012B813C8140
:10286000285F394F590120E030E040EC5FE3C701B9
:10287000B6010E94C8B5A30192010E94C8B5F50136
:1028800060837183828393832B813C812A5C3E4FDA
:102890003A832983F90160817181828193816093F8
:1028A000050170930601809307019093080120E0D1
:1028B00030E040E752E40E94FAB226E2C22E26E05F
:1028C000D22E7B018C0124E136E040E156E06CE041
:1028D00076E088E096E00E94DE5A0E94336C80E049
:1028E0000E947865F40110821182128213822FE314
:1028F00036E04BE356E067E376E083E396E00E9440
:102900009C632B813C812850384F1901C9015CDF41
:102910009058A30192010E94C8B5F50160837183AC
:102920008283938320E030E040E752E46091050128
:102930007091060180910701909108010E94FAB2FE
:102940007B018C0124E136E040E156E06CE076E06A
:1029500088E096E00E94DE5A0E94336C81E00E947B
:102960007865C10131DF9B01AC010E941AB2A3015D
:1029700092010E94C8B5F5016083718382839383BD
:1029800020E030E040E251E4E981FA816081718128
:10299000828193810E94FAB26093050170930601CF
:1029A000809307019093080120E030E040E752E473
:1029B0000E94FAB27B018C0124E136E040E156E04E
:1029C0006CE076E088E096E00E94DE5A0E94336C6C
:1029D0008B819C81805F974FF7DE0B811C81095DA5
:1029E000194FF80120813181428153810E941AB22E
:1029F000F40160837183828393838B819C81885DE2
:102A0000974FE2DE2B813C812A5E3E4F7901F8012F
:102A100020813181428153810E941AB2F701608383
:102A20007183828393838B819C81845E974FCCDEFC
:102A30002B813C81265F3E4F7901F8012081318155
:102A4000428153810E941AB2F701608371838283AD
:102A50009383F40180819181A281B381F501808308
:102A60009183A283B3831092050110920601109204
:102A70000701109208010F900F900F900F90DF91B7
:102A8000CF911F910F91FF90EF90DF90CF90BF906B
:102A9000AF909F908F907F906F905F904F903F90FE
:102AA0002F900C947165AB01662757FD6095762FCA
:102AB0000C9476AF0C9483AFCF92DF92EF92FF929B
:102AC000CF93DF93EC016A017B01FE0164916623E1
:102AD00029F08EEA90E142D82196F7CF22E030E04B
:102AE000B701A6018EEA90E1DF91CF91FF90EF90C0
:102AF000DF90CF90DFCFCF92DF92EF92FF92CF9314
:102B0000DF93EC016A017B01FE016491662329F0E9
:102B10008EEA90E123D82196F7CF20E0B701A601F5
:102B20008EEA90E1DF91CF91FF90EF90DF90CF9010
:102B30000C941AAFCF93DF9300D0CDB7DEB780915E
:102B4000A0109091A1109E012F5F3F4F009719F4A4
:102B50002A5B304102C0281B390B3A8329838981C3
:102B60009A810F900F90DF91CF910895CF93DF93CB
:102B70002091990330919A03243031050CF065C0FF
:102B800040919B0350919C0360E6649F9001659F78
:102B9000300D1124BC01C9018D559C4F0E9451BAC2
:102BA000E4E3F8E06491EF01662341F08EEA90E1FE
:102BB0000E94AE0D2196FE016491F6CFEAEEF7E099
:102BC0006491EF01662341F08EEA90E10E94AE0D20
:102BD0002196FE016491F6CF80919B0390919C0316
:102BE00020E6289FB001299F700D11246D557C4F60
:102BF0008EEA90E10E949E0DE8EEF7E06491EF010D
:102C0000662341F08EEA90E10E94AE0D2196FE010E
:102C10006491F6CF6AE08EEA90E10E94AE0D809159
:102C20009B0390919C03019664E070E00E94B1B612
:102C300090939C0380939B038091990390919A03B6
:102C4000019690939A0380939903DF91CF91089511
:102C5000CF93DF932091990330919A03243031056B
:102C60000CF065C040919B0350919C0360E6649F0B
:102C70009001659F300D1124BC01C9018D559C4FF9
:102C80000E94D4B9E4E3F8E06491EF01662341F0D7
:102C90008EEA90E10E94AE0D2196FE016491F6CF7E
:102CA000EDEDF7E06491EF01662341F08EEA90E1EB
:102CB0000E94AE0D2196FE016491F6CF80919B0398
:102CC00090919C0320E6289FB001299F700D11244C
:102CD0006D557C4F8EEA90E10E949E0DEBEDF7E082
:102CE0006491EF01662341F08EEA90E10E94AE0DFF
:102CF0002196FE016491F6CF6AE08EEA90E10E948F
:102D0000AE0D80919B0390919C03019664E070E06E
:102D10000E94B1B690939C0380939B03809199038A
:102D200090919A03019690939A0380939903DF916F
:102D3000CF910895FF920F931F93CF93DF9340E9B4
:102D400050ED63E070E08EEA90E10E9499B1E5ED0C
:102D5000F7E06491EF01662341F08EEA90E10E9472
:102D6000AE0D2196FE016491F6CF6AE08EEA90E105
:102D70000E94AE0DC4E3D8E0FE0164918E0166238B
:102D800049F08EEA90E10E94AE0D0F5F1F4FF801EF
:102D90006491F5CFF4B6F0FE14C0EDECF7E0649169
:102DA0008F01662349F08EEA90E10E94AE0D0F5F1D
:102DB0001F4FF8016491F5CF6AE08EEA90E10E941E
:102DC000AE0DF1FE14C0EDEBF7E064918F016623C8
:102DD00049F08EEA90E10E94AE0D0F5F1F4FF8019F
:102DE0006491F5CF6AE08EEA90E10E94AE0DF2FEAA
:102DF00014C0ECEAF7E064918F01662349F08EEA93
:102E000090E10E94AE0D0F5F1F4FF8016491F5CF66
:102E10006AE08EEA90E10E94AE0DF3FE14C0ECE988
:102E2000F7E064918F01662349F08EEA90E10E94F9
:102E3000AE0D0F5F1F4FF8016491F5CF6AE08EEA87
:102E400090E10E94AE0DF5FE14C0ECE8F7E064914D
:102E50008F01662349F08EEA90E10E94AE0D0F5F6C
:102E60001F4FF8016491F5CF6AE08EEA90E10E946D
:102E7000AE0D14BEE4E8F7E064918F01662349F0DB
:102E80008EEA90E10E94AE0D0F5F1F4FF801649132
:102E9000F5CFEEE7F7E064918F01662349F08EEA03
:102EA00090E10E94AE0D0F5F1F4FF8016491F5CFC6
:102EB0006AE08EEA90E10E94AE0DFE01649104E3A7
:102EC00018E0662349F08EEA90E10E94AE0D0F5F94
:102ED0001F4FF8016491F5CFEEE6F7E064918F01A2
:102EE000662349F08EEA90E10E94AE0D0F5F1F4FFE
:102EF000F8016491F5CFE9E5F7E064918F0166236D
:102F000049F08EEA90E10E94AE0D0F5F1F4FF8016D
:102F10006491F5CFEDE4F7E064918F01662349F009
:102F20008EEA90E10E94AE0D0F5F1F4FF801649191
:102F3000F5CFECE3F7E064918F01662349F08EEA68
:102F400090E10E94AE0D0F5F1F4FF8016491F5CF25
:102F50006AE08EEA90E10E94AE0DE1E3F7E0649151
:102F60008F01662349F08EEA90E10E94AE0D0F5F5B
:102F70001F4FF8016491F5CFE5E2F7E064918F010E
:102F8000662349F08EEA90E10E94AE0D0F5F1F4F5D
:102F9000F8016491F5CF6AE08EEA90E10E94AE0DEF
:102FA000FE01649104E318E0662349F08EEA90E1A3
:102FB0000E94AE0D0F5F1F4FF8016491F5CFE6E15F
:102FC000F7E06491EF01662341F08EEA90E10E9400
:102FD000AE0D2196FE016491F6CFACDDBC018EEA08
:102FE00090E161DDEFEFF6E06491EF01662341F0DF
:102FF0008EEA90E10E94AE0D2196FE016491F6CF1B
:1030000060ED74E08EEA90E14EDD6AE08EEA90E1D8
:103010000E94AE0D10929F031092A0031092A10384
:103020001092A203EFDA0E9466700E9439590E9442
:10303000E56B0E946188FFEF23ED80E3F1502040B3
:103040008040E1F700C00000DF91CF911F910F9108
:10305000FF900895809193039091940360E070E055
:1030600001960C942BB780919303909194034AE0BE
:1030700050E060E070E001960C9493B8682F7727D9
:1030800067FD709520919D0330919E0340E6429F1D
:10309000C001439F900D11248D559C4F0E9446BA4C
:1030A000909394038093930321E0892B09F420E00B
:1030B000822F0895CF93DF930FB6F8948091A310D9
:1030C0009091A410A091A510B091A6100FBE80936E
:1030D0008F0390939003A0939103B0939203E09198
:1030E0009D03F0919E03E156FC4F8081811115C034
:1030F000E6EBF3E06491EF01662341F08EEA90E1A4
:103100000E94AE0D2196FE016491F6CF6AE08EEA30
:1031100090E1DF91CF910C94AE0DDF91CF910895A6
:103120008F929F92AF92BF92CF92DF92EF92FF92D7
:103130000F931F93CF93DF9335EFE32E32E0F32EFF
:1031400003E316E0C8E0D6E045E4C42E46E0D42E02
:10315000F70181917F0192DF882311F17BDF4B0121
:103160005C01F6018081811103C06091230501C0DB
:1031700061E070E080E090E00E9495B3F80120816A
:103180003181428153810E94C8B59B01AC01C501C8
:10319000B4010E941AB2688379838A839B8309C031
:1031A000F80180819181A281B38188839983AA8368
:1031B000BB830C5F1F4F2496FFEFCF1ADF0A89EF06
:1031C000E81682E0F80621F686E458DF8823D1F07D
:1031D00041DF6B017C01609334057093350580936A
:1031E00036059093370520E030E0A9010E94F6B43F
:1031F000181644F4C0920501D0920601E09207012E
:10320000F0920801DF91CF911F910F91FF90EF9005
:10321000DF90CF90BF90AF909F908F90089580DF08
:1032200089E42CDF882351F015DF6093FC0570934F
:10323000FD058093FE059093FF0508C01092FC05E4
:103240001092FD051092FE051092FF058AE416DF2C
:10325000882351F0FFDE609300067093010680938F
:10326000020690930306089510920006109201063C
:1032700010920206109203060895CF92DF92EF9209
:10328000FF92CF93DF93EC01C0900A01D0900B0125
:10329000E0900C01F0900D01A70196016881798101
:1032A0008A819B810E94F6B4181624F4C882D982C0
:1032B000EA82FB82C0900E01D0900F01E0901001D5
:1032C000F0901101A70196016C817D818E819F8113
:1032D0000E94F6B4181624F4CC82DD82EE82FF82BE
:1032E000C0901201D0901301E0901401F0901501EC
:1032F000A7019601688579858A859B850E94F6B429
:10330000181624F4C886D986EA86FB86DF91CF9109
:10331000FF90EF90DF90CF9008954F925F926F9261
:103320007F928F929F92AF92BF92CF92DF92EF9255
:10333000FF92CF93DF93EC01288139814A815B8131
:1033400064EF7DE188EB92EC0E9419B26B017C0185
:103350002C813D814E815F816AE979E984E592ECB7
:103360000E9419B29B01AC010E94C8B54B015C01DF
:10337000A7019601C701B6010E94C8B59B01AC0127
:1033800060E071E881E197E40E9419B2A50194011F
:103390000E9419B20E9435B6C884D984EA84FB849D
:1033A000A70196010E941AB260931806709319063D
:1033B00080931A0690931B06288139814A815B818C
:1033C00064EF7DE188EB92E40E9419B29B01AC01AD
:1033D0000E94C8B59B01AC0160E071E881E197E40F
:1033E0000E9419B2A50194010E9419B20E9435B63B
:1033F000A70196010E941AB260931C0670931D06E5
:1034000080931E0690931F06288139814A815B8133
:1034100060E070E0CB010E9419B22B013C012C81CD
:103420003D814E815F816AE979E984ED92E40E94F1
:1034300019B24B015C01A3019201C301B2010E94C8
:10344000C8B59B01AC0160E071E881E197E40E949E
:1034500019B22B013C01A5019401C501B4010E94E0
:10346000C8B59B01AC01C301B2010E9419B20E9410
:1034700035B6A70196010E941AB260932006709398
:1034800021068093220690932306DF91CF91FF902F
:10349000EF90DF90CF90BF90AF909F908F907F90F4
:1034A0006F905F904F9008952F923F924F925F924E
:1034B0006F927F928F929F92AF92BF92CF92DF9244
:1034C000EF92FF920F931F93CF93DF93CDB7DEB7A9
:1034D00060970FB6F894DEBF0FBECDBF8C0120E021
:1034E00030E040EB51E4DC016D917D918D919C9138
:1034F0000E94FAB24B015C012EE93FEE4FE350E42B
:103500000E94F6B418164CF49EE9892E9FEE992E6F
:103510009FE3A92E90E4B92E12C02EE93FEE4FE3AF
:1035200050ECC501B4010E94F3B287FF08C08EE9D8
:10353000882E8FEE982E8FE3A82E80ECB82E20E0F8
:1035400030E040EB51E4F801648175818681978118
:103550000E94FAB26B017C012EE93FEE4FE350E48A
:103560000E94F6B418164CF41EE9C12E1FEED12E9F
:103570001FE3E12E10E4F12E12C02EE93FEE4FE3DF
:1035800050ECC701B6010E94F3B287FF08C0BEE944
:10359000CB2EBFEEDB2EBFE3EB2EB0ECFB2EC50136
:1035A000B4010E94D0B30E9462B369837A838B8393
:1035B0009C83C701B6010E94D0B30E9462B32B0165
:1035C0003C0129813A81B901882777FD8095982FA0
:1035D0000E9495B39B01AC01C501B4010E9419B2D0
:1035E0006F83788789879A87B201882777FD8095CE
:1035F000982F0E9495B39B01AC01C701B6010E94B0
:1036000019B26B017C0189819A810396988B8F870F
:10361000D2011396BE83AD831201B4E02B0E311C90
:10362000E981FA813496FA83E983A701960160E083
:1036300070E080E89FE30E9419B24B015C012F818A
:10364000388549855A8560E070E080E89FE30E94F4
:1036500019B26B877C878D879E8787E02F85388995
:10366000829F8001839F100D1124ED81FE81E00F68
:10367000F11FEE0FFF1FEE0FFF1FE85CFA4F2081D6
:10368000318142815381C501B4010E94C8B52B012B
:103690003C01F801E20DF31DEE0FFF1FEE0FFF1FBF
:1036A000E85CFA4F2081318142815381C701B60124
:1036B0000E94C8B59B01AC01C301B2010E941AB2BD
:1036C0009B01AC016B857C858D859E850E94C8B56C
:1036D0002B013C01E7E0A981BA81EA9F8001EB9FC1
:1036E000100D1124ED81FE81E00FF11FEE0FFF1F81
:1036F000EE0FFF1FE85CFA4F208131814281538138
:10370000C501B4010E94C8B54B015C01F801E20D8E
:10371000F31DEE0FFF1FEE0FFF1FE85CFA4F208135
:10372000318142815381C701B6010E94C8B59B0116
:10373000AC01C501B4010E941AB29B01AC016F81BA
:10374000788589859A850E94C8B59B01AC01C30123
:10375000B2010E941AB26B017C019B01AC01609125
:1037600018067091190680911A0690911B060E9406
:103770001AB2609318067093190680931A069093F4
:103780001B06A701960160911C0670911D06809191
:103790001E0690911F060E941AB260931C06709339
:1037A0001D0680931E0690931F06A7019601609147
:1037B00020067091210680912206909123060E9496
:1037C0001AB260932006709321068093220690938C
:1037D000230660960FB6F894DEBF0FBECDBFDF9113
:1037E000CF911F910F91FF90EF90DF90CF90BF90FE
:1037F000AF909F908F907F906F905F904F903F9091
:103800002F900895CF92DF92EF92FF920F931F9324
:103810000FB6F8948091A3109091A410A091A510D8
:10382000B091A6100FBE80938F0390939003A09346
:103830009103B093920388E096E06FDD60912401DC
:1038400070912501882777FD8095982F0E9495B368
:103850002091050130910601409107015091080126
:103860000E94C8B520E030E040E752E40E94FAB27E
:1038700020E030E048EC52E40E94FAB226E2C22E88
:1038800026E0D22E7B018C0124E136E040E256E0B6
:103890006CE176E088E196E00E94DE5A80910806AD
:1038A00090910906A0910A06B0910B068093330609
:1038B00090933406A0933506B093360680910C069B
:1038C00090910D06A0910E06B0910F0680933706D9
:1038D00090933806A0933906B0933A06809110066B
:1038E00090911106A0911206B091130680933B06A9
:1038F00090933C06A0933D06B0933E06809114063B
:1039000090911506A0911606B091170680933F0678
:1039100090934006A0934106B09342061F910F91E9
:10392000FF90EF90DF90CF900895EF92FF920F936A
:103930001F93CF93DF9306E311E0F801808191811B
:10394000A281B3818093050190930601A0930701A2
:10395000B093080138E0E32E36E0F32E80E090E0EB
:10396000A0EAB1E4F70180839183A283B383CCE022
:10397000D6E080E090E0A4EBB2E488839983AA8348
:10398000BB8380E090E0A8E4B2E4809310069093BB
:103990001106A0931206B093130634DF20E030E046
:1039A00040E251E4F80160817181828193810E943B
:1039B000FAB260930501709306018093070190931A
:1039C0000801F70110821182128213821BDFF801B5
:1039D00080819181A281B38180930501909306013A
:1039E000A0930701B093080120E030E040E252E4E8
:1039F00060913706709138068091390690913A06A9
:103A00000E9419B2688379838A839B83FBDEDF91EE
:103A1000CF911F910F91FF90EF900C94336CCF9248
:103A2000DF92EF92FF920F931F93CF93DF9306E302
:103A300011E0F80180819181A281B3818093050119
:103A400090930601A0930701B0930801C0E1D6E06E
:103A50004BE3C42E46E0D42E20E030E040E752E4B1
:103A6000F60160817181828193810E941AB268831C
:103A700079838A839B83C6DE10920806109209061A
:103A800010920A0610920B065CE0E52E56E0F52E29
:103A900080E090E0A0EAB2E4F70180839183A28302
:103AA000B38380E090E0A0EFB1E488839983AA8398
:103AB000BB83A8DE20E030E040E251E460913E01AB
:103AC00070913F0180914001909141010E94FAB2B2
:103AD000609305017093060180930701909308019C
:103AE00020E030E040E751E4F6016081718182819D
:103AF00093810E9419B2688379838A839B8382DED3
:103B0000F80180819181A281B38180930501909316
:103B10000601A0930701B093080120E030E040E2E5
:103B200051E4F60160817181828193810E941AB211
:103B3000688379838A839B8365DE80913A019091C3
:103B40003B01A0913C01B0913D0180930501909310
:103B50000601A0930701B093080180E090E0ACE873
:103B6000B2E4F70180839183A283B3834BDE20E02C
:103B700030E0A901609137067091380680913906CE
:103B800090913A060E941AB2F70160837183828392
:103B9000938338DE20E030E040E450E4F8016081B7
:103BA0007181828193810E94FAB2609305017093C2
:103BB000060180930701909308018DEC9CECACEC1E
:103BC000BDE388839983AA83BB831CDEDF91CF91F9
:103BD0001F910F91FF90EF90DF90CF900C94336C7A
:103BE0004F925F926F927F92AF92BF92CF92DF928D
:103BF000EF92FF920F931F93CF93DF938091360143
:103C000090913701A0913801B0913901809305015D
:103C100090930601A0930701B0930801F3DD0E9481
:103C2000336C81E00E9478656BE3A62E66E0B62EC9
:103C3000F501C080D180E280F38082E00E948D6C2B
:103C40002B013C010EE311E020E030E040E251E4C2
:103C5000F80160817181828193810E94FAB2609340
:103C60000501709306018093070190930801C0E15C
:103C7000D6E080E090E0A0EAB1EC88839983AA8343
:103C8000BB83C0DD0E94336C0E94716580E00E949E
:103C9000786582E00E948D6CA3019201261B370B90
:103CA000480B590BCA01B9010E9495B32091880FA6
:103CB0003091890F40918A0F50918B0F0E94FAB278
:103CC0009B01AC01C701B6010E9419B26B017C01D6
:103CD000F501608371838283938383E396E01DDB28
:103CE0002FE336E040E256E06CE176E088E196E0D2
:103CF0000E949C63F80180819181A281B3818093AD
:103D0000050190930601A0930701B093080120E0FC
:103D100030E040E050E4C701B6010E941AB2688367
:103D200079838A839B836EDDC701B601DF91CF91D2
:103D30001F910F91FF90EF90DF90CF90BF90AF90C9
:103D40007F906F905F904F9008952F923F924F9287
:103D50005F926F927F928F929F92AF92BF92CF921B
:103D6000DF92EF92FF920F931F93CF93DF93CDB724
:103D7000DEB766970FB6F894DEBF0FBECDBF6D8776
:103D80007E878F87988B0CE615E0BCED4B2EB5E057
:103D90005B2E22E430E03A83298383E090E09E8B1F
:103DA0008D8B9D8990FF04C0CC24CA94DC2C03C069
:103DB000CC24C394D12C4DEF960142033001439F94
:103DC000700C1124C601880F991F880F991F9E83BC
:103DD0008D83ED89FE89EE9FD001EF9FB00DB00D70
:103DE0001124B887AF8346E14C9D90014D9D300D65
:103DF00011243C832B83ACE1AC9DC001AD9D900DA3
:103E000011249A87898726E1269DF001279DF00DD0
:103E10001124FC87EB8737E0369D5001379DB00CAD
:103E200011248D899E89A80EB91EAA0CBB1CAA0C50
:103E3000BB1CD501A85CBA4F5D01E12CF12C212CF3
:103E4000312C89819A81AA2797FDA095BA2F898B59
:103E50009A8BAB8BBC8BAD81BE816A167B0609F455
:103E60006AC0669CC001679C900D900D1124AF81C3
:103E7000B8858A0F9B1F0B970CF049C08B859C85DA
:103E8000820D931DBC01882777FD8095982F0E9495
:103E900095B320912601309127014091280150913E
:103EA00029010E9419B26093080670930906809355
:103EB0000A0690930B0669897A898B899C890E94EE
:103EC00095B320912A0130912B0140912C01509102
:103ED0002D010E9419B260930C0670930D06809319
:103EE0000E0690930F067CDE95012E0D3F1D4901B5
:103EF000B0E68B0E911C2D853E854F8558890E941A
:103F00001AB2F401608371838283938309C0F5013F
:103F1000EE0DFF1DE05AFF4F1082118212821382B4
:103F20006C0C7D1C2B813C81220E331E89859A8569
:103F3000E80EF91E90CF8D899E8997FF03C0919559
:103F40008195910983309105A9F4F801848D958DAF
:103F5000A68DB78D80839183A283B383EC5AFF4FE4
:103F600080819181A281B381F20180839183A283B8
:103F7000B38302C0029799F4F80180819181A281F4
:103F8000B3817C9780839183A283B383F201808184
:103F90009181A281B381848F958FA68FB78FE12CF9
:103FA000F12C6801F8E2CF1AD108F601EE0DFF1DE1
:103FB000448555856685778523E030E08EEA90E17B
:103FC0000E945A15EFE8F5E064913F01662351F035
:103FD0008EEA90E10E94AE0DFFEF6F1A7F0AF301A7
:103FE0006491F4CFFCE1EF0EF11C24ECE216F10435
:103FF000E1F669E273E08EEA90E10E949E0D6AE0CC
:104000008EEA90E10E94AE0D8D899E8901979E8B6C
:104010008D8B0450110994E0491A5108A981BA8185
:104020005697BA83A983ED89FE89349609F0B9CEF3
:1040300066960FB6F894DEBF0FBECDBFDF91CF916D
:104040001F910F91FF90EF90DF90CF90BF90AF90B6
:104050009F908F907F906F905F904F903F902F90A8
:1040600008952F923F924F925F926F927F928F921C
:104070009F92AF92BF92CF92DF92EF92FF920F93F7
:104080001F93CF93DF93CDB7DEB766970FB6F89443
:10409000DEBF0FBECDBF88E096E0EFD80FB6F89434
:1040A0008091A3109091A410A091A510B091A6109A
:1040B0000FBE80938F0390939003A0939103B093CE
:1040C0009203CE0101967C0193E3C92E96E0D92E8E
:1040D00008E016E0D8016D917D918D919D918D0143
:1040E000F60121913191419151916F010E9419B2D4
:1040F000D7016D937D938D939D937D01B6E008313B
:104100001B0741F769817A818B819C818D809E801C
:10411000AF80B884C984DA84EB84FC849B01AC0151
:104120000E94C8B52B013C01A5019401C501B40151
:104130000E94C8B59B01AC01C301B2010E941AB232
:104140004B015C01A7019601C701B6010E94C8B5E9
:104150009B01AC01C501B4010E941AB20E9435B6A0
:104160006B017C012DEB37E346E855E30E94F3B287
:1041700087FF11C0CD84DE84EF84F88820E030E032
:10418000A901C701B6010E94F6B4181624F0F7FA87
:10419000F094F7F8F0942DEB37E346E855E3C701C8
:1041A000B6010E94F3B287FDFEC020E030E84BEB81
:1041B00055E4C701B6010E94C8B5209105013091B0
:1041C000060140910701509108010E94FAB26B016B
:1041D0007C016091240170912501882777FD8095ED
:1041E000982F0E9495B39B01AC01C701B6010E94B4
:1041F000FAB220E030E048EC52E40E94C8B50E94D8
:1042000062B35B01161617061CF0AA24A394B12C06
:1042100088248394912CC501AA2797FDA095BA2FD5
:104220008B8B9C8BAD8BBE8BB401882777FD8095E3
:10423000982F0E9495B36B017C016B897C898D89D5
:104240009E890E9495B39B01AC01C701B6010E94F3
:10425000FAB22B013C01A8E0B6E0BA8BA98BFE01B3
:1042600031961F0103E316E0D801CD90DD90ED906B
:10427000FD908D01F10161917191819191911F01E9
:10428000A30192010E94C8B59B01AC01C701B60110
:104290000E941AB2A989BA896D937D938D939D93DB
:1042A000BA8BA98BB6E003341B07F1F688E096E0E1
:1042B00034D888E096E0F8D8609124017091250107
:1042C000882777FD8095982F0E9495B3209105014E
:1042D0003091060140910701509108010E94C8B534
:1042E00020E030E040E752E40E94FAB220E030E003
:1042F00048EC52E40E94FAB216E2C12E16E0D12E2A
:104300007B018C0124E136E040E256E06CE176E08E
:1043100088E196E00E94DE5AEFEF8E1A9E0AA814FA
:10432000B9040CF081CF8091080690910906A09104
:104330000A06B0910B068093330690933406A0933F
:104340003506B093360680910C0690910D06A0912B
:104350000E06B0910F068093370690933806A0930F
:104360003906B0933A068091100690911106A091FB
:104370001206B091130680933B0690933C06A093DF
:104380003D06B0933E068091140690911506A091CB
:104390001606B091170680933F0690934006A093AF
:1043A0004106B093420666960FB6F894DEBF0FBE84
:1043B000CDBFDF91CF911F910F91FF90EF90DF90D4
:1043C000CF90BF90AF909F908F907F906F905F90B5
:1043D0004F903F902F900895AF92BF92CF92DF926F
:1043E000EF92FF920F931F93CF93DF93D82F2091DB
:1043F000000630910106409102065091030660913B
:10440000FC057091FD058091FE059091FF050E94CD
:1044100003B5C62F172F082FF92E60912401709134
:104420002501882777FD8095982F0E9495B32091CC
:1044300005013091060140910701509108010E9449
:10444000C8B520E030E040E752E40E94FAB220E034
:1044500030E048EC52E40E94FAB2209126062F93F5
:10446000DF93FF920F931F93CF935B016C0122E0C8
:10447000E22E01E020E04CEF55E068E076E083E3D7
:1044800096E00E9470528091080690910906A091D2
:104490000A06B0910B068093330690933406A093DE
:1044A0003506B093360680910C0690910D06A091CA
:1044B0000E06B0910F068093370690933806A093AE
:1044C0003906B0933A068091100690911106A0919A
:1044D0001206B091130680933B0690933C06A0937E
:1044E0003D06B0933E068091140690911506A0916A
:1044F0001606B091170680933F0690934006A0934E
:104500004106B09342060FB6F8948091A3109091A3
:10451000A410A091A510B091A6100FBE80938F0398
:1045200090939003A0939103B09392030F900F90F8
:104530000F900F900F900F90DF91CF911F910F91DF
:10454000FF90EF90DF90CF90BF90AF900895F894D8
:104550000E94FE70769A779A479A439AEAE3F8E0C7
:104560006491EF01662341F08EEA90E10E94AE0D66
:104570002196FE016491F6CFE7E9F3E06491EF0143
:10458000662341F08EEA90E10E94AE0D2196FE0175
:104590006491F6CF6AE08EEA90E10E94AE0D8EE85B
:1045A00093E00E940388FFCF0F931F930FB6F894F8
:1045B0008091A3109091A410A091A510B091A61085
:1045C0000FBE00918F0310919003209191033091C1
:1045D000920340918B0350918C0360918D037091F5
:1045E0008E03801B910BA20BB30B481759076A0768
:1045F0007B0728F4452B462B472B09F0A8DF409179
:104600000101509102016091030170910401411573
:10461000510561057105D1F00FB6F8948091A31092
:104620009091A410A091A510B091A6100FBE801B70
:10463000910BA20BB30B481759076A077B0730F49D
:1046400090914E0A80914D0A981721F01F910F9179
:104650000C94825A769A779A479A439AF7CFCF93D7
:10466000DF930E94FE708091810381113AC081E046
:10467000809381038091280590912905A0912A05B6
:10468000B0912B058093240590932505A0932605D2
:10469000B0932705EAE3F8E06491EF01662341F067
:1046A0008EEA90E10E94AE0D2196FE016491F6CF54
:1046B000E8E1F3E06491EF01662341F08EEA90E1D6
:1046C0000E94AE0D2196FE016491F6CF6AE08EEA5B
:1046D00090E10E94AE0D8EE093E0DF91CF910C94BB
:1046E000F487DF91CF9108958091810308950F930E
:1046F0001F93CF93DF93EC01809126068093820372
:1047000084E50E943E18811102C080E043C00E94EF
:104710002A180E9467B3609382036623B1F3E4E32F
:10472000F8E064918F01662349F08EEA90E10E94DF
:10473000AE0D0F5F1F4FF8016491F5CFC936D1055B
:1047400081F034F4C836D105A9F46FEF71E00EC0E2
:10475000CD36D10549F0CA3DD10561F464E472E07B
:1047600005C066E172E002C06DE272E08EEA90E19F
:104770000E949E0D4091820350E060E070E020E0D6
:104780008EEA90E10E941AAF6AE08EEA90E10E9400
:10479000AE0D81E0DF91CF911F910F9108952DEF24
:1047A00032E0FC01318320832681222319F0039615
:1047B0000C94A73F08958F929F92AF92BF92CF9291
:1047C000DF92EF92FF920F931F93CF93DF938C01B1
:1047D00082549E4FE4DF68018DE6C80ED11CC114DF
:1047E000D10421F1780187E6E81A8EEFF80AE70193
:1047F00057018EE1A81AB1083DEF832E32E0932EC7
:10480000CC15DD0599F0FE01EE19FF09EA0DFB1D3F
:1048100091828082FE0178978081811102C06E971B
:10482000EFCFCE014B970E94A73FF9CFC801815B24
:104830009F4FB5DFC8018F96DF91CF911F910F91E8
:10484000FF90EF90DF90CF90BF90AF909F908F90B0
:10485000A6CF89E496E00C94D44889E496E0ABCFE7
:10486000CF93DF938EEA90E10E9400B2E9EBF3E090
:104870006491EF01662341F08EEA90E10E94AE0D53
:104880002196FE016491F6CF4091280550912905AB
:1048900060912A0570912B054F5F5F4F6F4F7F4FDF
:1048A0008EEA90E10E9476AF6AE08EEA90E10E9483
:1048B000AE0DDF91CF910C945A182F923F924F92E8
:1048C0005F926F927F928F929F92AF92BF92CF92A0
:1048D000DF92EF92FF920F931F93CF93DF93CDB7A9
:1048E000DEB76E970FB6F894DEBF0FBECDBFF0E611
:1048F0009F2E04E010E0A2ECEA2EA5E0FA2EB8E329
:10490000CB2EB6E0DB2E882483948EEA90E10E94C1
:104910002DB01816190634F48091990390919A03DA
:104920000497E4F180914B06882309F45DC38091DC
:10493000960390919703892B09F056C340E6342ED5
:10494000222423945CE3C52ED12CE12CF12C60E1D0
:10495000462E6EE0562E612C712C8E010F5F1F4F7C
:1049600040912D0850912E0860912F0870913008C9
:104970008091250890912608A0912708B0912808D9
:10498000481759076A077B0708F02EC380919903DF
:1049900090919A0304970CF409C226C38EEA90E121
:1049A0000E9466B0809398032091960330919703FC
:1049B0008A3061F08D3051F08A3321F49091950363
:1049C000992321F02F3531050CF45FC121153105F4
:1049D00009F479C180919B0390919C03989E5001AA
:1049E000999EB00C1124F501E20FF31FED55FC4F19
:1049F000108220919503211143C110929503FC016F
:104A0000E156FC4F1082C5018D559C4F3C016EE470
:104A100070E00E9446BA009709F46EC09093940328
:104A200080939303861997098A0D9B1D4AE050E0F5
:104A300060E070E08C559C4F0E9493B860932C0509
:104A400070932D0580932E0590932F054090280597
:104A50005090290560902A0570902B05AFEF4A1AF7
:104A60005A0A6A0A7A0AA0909B03B0909C036415C4
:104A700075058605970509F429C19A9CC0019B9C80
:104A8000900D112461EE76E08D559C4F0E940BBA7B
:104A9000892B09F01BC1EAE3F8E064918F016623DA
:104AA00049F08EEA90E10E94AE0D0F5F1F4FF801B2
:104AB0006491F5CFEEEAF6E064918F01662349F048
:104AC0008EEA90E10E94AE0D0F5F1F4FF8016491D6
:104AD000F5CF409128055091290560912A057091E4
:104AE0002B058EEA90E10E9476AF6AE08EEA90E1B3
:104AF0000E94AE0DB5DE37C06AE270E0C3010E94CD
:104B000046BA892B09F444C0EAE3F8E064918F01C6
:104B1000662349F08EEA90E10E94AE0D0F5F1F4FB1
:104B2000F8016491F5CFEBE3F6E064918F01662321
:104B300049F08EEA90E10E94AE0D0F5F1F4FF80121
:104B40006491F5CF409128055091290560912A057F
:104B500070912B058EEA90E10E9476AF6AE08EEAB2
:104B600090E10E94AE0D10929703109296033CC202
:104B700080912C0590912D05A0912E05B0912F05C7
:104B80008093280590932905A0932A05B0932B05BF
:104B900080919B0390919C03989E5001999EB00C2C
:104BA0001124C5018D559C4F3C0167E470E00E94C3
:104BB00046BA009709F44FC09093940380939303EF
:104BC000861997098A0D9B1D60E070E08C559C4FFB
:104BD0000E942BB70E9462B36430710508F03BC09D
:104BE0008091810381111CC080914906811133C0DD
:104BF000F6016491E8E3AE2EE6E0BE2E662351F0A6
:104C00008EEA90E10E94AE0DFFEFAF1ABF0AF501E8
:104C10006491F4CF6AE08EEA90E10E94AE0D1BC071
:104C2000F701649172ECA72E75E0B72E662351F060
:104C30008EEA90E10E94AE0DFFEFAF1ABF0AF501B8
:104C40006491F4CF6AE08EEA90E10E94AE0D88EBA9
:104C500095E00E94F48780919B0390919C030196BC
:104C6000B8010E94B1B690939C0380939B038091FE
:104C7000990390919A03019690939A0380939903D4
:104C8000109297031092960340CE8B3311F48092CA
:104C9000950390919503911138CE40919B035091CB
:104CA0009C03B9016F5F7F4F7093970360939603E6
:104CB000949EF001959EF00D1124E20FF31FED5527
:104CC000FC4F808322CE109295038EC19A9C3001B6
:104CD0009B9C700C1124C3018D559C4F2C016AE2E2
:104CE00070E00E9446BA0097F9F4EAE3F8E06491B4
:104CF0008F01662349F08EEA90E10E94AE0D0F5FAE
:104D00001F4FF8016491F5CFE5E6F6E064918F015D
:104D1000662309F4DECE8EEA90E10E94AE0D0F5FAD
:104D20001F4FF8016491F4CF20E0B12CF301E20FA2
:104D3000F11DED55FC4F30813A3219F02F5FB3264B
:104D4000F5CF909394038093930384199509860D6E
:104D5000971D60E070E08C559C4F0E942BB70E941D
:104D600062B32B2D30E02617370709F401CFEAE3B1
:104D7000F8E064918F01662349F08EEA90E10E9489
:104D8000AE0D0F5F1F4FF8016491F5CFEFE8F6E02D
:104D900064918F01662309F49CCE8EEA90E10E9413
:104DA000AE0D0F5F1F4FF8016491F4CF8091120890
:104DB00090911308A0911408B091150880932D08C4
:104DC00090932E08A0932F08B09330088AE098E0C3
:104DD0000E94FB3D482F809398038A30A1F04D300C
:104DE00091F04A3321F420919503222361F0209120
:104DF0009603309197032F3531052CF48F3FFFEF49
:104E00009F0709F0D3C040912D0850912E08609162
:104E10002F08709130088091250890912608A09164
:104E20002708B0912808481759076A077B0708F434
:104E300089C0E5EAF5E064915F01662351F08EEAEE
:104E400090E10E94AE0DFFEFAF1ABF0AF501649129
:104E5000F4CF6AE08EEA90E10E94AE0D0FB6F894AE
:104E60008091A3109091A410A091A510B091A610CC
:104E70000FBE8093830390938403A0938503B09324
:104E80008603409187035091880360918903709154
:104E90008A034C015D01841A950AA60AB70AC50166
:104EA000B40128EE33E040E050E00E94C4B649016E
:104EB0005A01CA01B901A70196010E94C4B6CA01EC
:104EC000B901A70196010E94C4B67F936F93C501F3
:104ED000B401A30192010E94C4B63F932F93A1E9AC
:104EE000B5E0BF93AF931F930F930E9475BAE4E3AD
:104EF000F8E064910FB6F894DEBF0FBECDBF5F013E
:104F0000662351F08EEA90E10E94AE0D9FEFA91A40
:104F1000B90AF5016491F4CFB8018EEA90E10E94DC
:104F20009E0D6AE08EEA90E10E94AE0DC8010E94DB
:104F3000E58789E496E00E94395261E089E496E0D1
:104F40000E94A14F209196033091970321153105BE
:104F500009F4B9CE80919B0390919C03389EF00197
:104F6000399EF00D1124E20FF31FED55FC4F108216
:104F7000FC01E156FC4F20822091990330919A0365
:104F80002F5F3F4F30939A0320939903019664E07B
:104F900070E00E94B1B690939C0380939B031092A3
:104FA00095031092970310929603DACC4B3311F4C9
:104FB00020929503409195034111D2CC40919B03DF
:104FC00050919C03B9016F5F7F4F7093970360937B
:104FD0009603349EF001359EF00D1124E20FF31F6D
:104FE000ED55FC4F8083BCCC6E960FB6F894DEBFB7
:104FF0000FBECDBFDF91CF911F910F91FF90EF902A
:10500000DF90CF90BF90AF909F908F907F906F90E8
:105010005F904F903F902F9008952F923F924F9224
:105020005F926F927F928F929F92AF92BF92CF9238
:10503000DF92EF92FF920F931F93CF93DF93CDB741
:10504000DEB7A0970FB6F894DEBF0FBECDBF87E4E2
:105050000E943E18882309F49EC20E942A180E94CA
:1050600062B36430710509F43EC044F462307105E6
:1050700041F17CF577FF1BC00C94DE366A35710573
:1050800009F435C254F46C31710509F48CC06D31EA
:10509000710509F4C0C10C94DE366B35710509F455
:1050A0002AC26C35710509F42BC20C94DE3680914E
:1050B0008103811106C00E9490180E9431200C9437
:1050C000683880918103811104C00E940F1981E02A
:1050D00007C080918103811106C00E940F1980E0F2
:1050E0007BD90C94683886E895E00E94F48780E5C7
:1050F0000E943E18882339F00E942A180E9467B344
:105100006B017C0103C0C12CD12C760183E50E9488
:105110003E18882361F00E942A1820E030E04AE718
:1051200054E40E94C8B50E9467B36B017C010E94E1
:10513000336C0FB6F8948090A3109090A410A090B8
:10514000A510B090A6100FBE8C0C9D1CAE1CBF1CF1
:105150000FB6F8948091A3109091A410A091A5107F
:10516000B091A6100FBE80938F0390939003A093ED
:105170009103B09392030FB6F8948091A31090918D
:10518000A410A091A510B091A6100FBE8815990586
:10519000AA05BB0510F00C94DE360E947A6E04DA84
:1051A0000E941489E8CF8091050190910601A09199
:1051B0000701B09108018093300590933105A093C9
:1051C0003205B0933305809124019091250190938D
:1051D00044068093430684E690E0909325018093F3
:1051E00024010FB6F8948091A3109091A410A0917F
:1051F000A510B091A6100FBE80938F0390939003DB
:10520000A0939103B093920381E00E94786580910E
:10521000330690913406A0913506B09136068093FE
:10522000080690930906A0930A06B0930B06809196
:10523000370690913806A0913906B0913A068093CE
:105240000C0690930D06A0930E06B0930F06809166
:105250003B0690913C06A0913D06B0913E0680939E
:10526000100690931106A0931206B0931306809136
:105270003F0690914006A0914106B091420680936E
:10528000140690931506A0931606B0931706109275
:105290000501109206011092070110920801109268
:1052A000330610923406109235061092360610928C
:1052B0003706109238061092390610923A0610926C
:1052C0003B0610923C0610923D0610923E062FE3DC
:1052D00036E04BE356E067E376E083E396E00E9436
:1052E0009C6380E090E0A6E1B4E48093080690938C
:1052F0000906A0930A06B0930B0680930C069093C0
:105300000D06A0930E06B0930F068093100690939F
:105310001106A0931206B09313062DE232EB4DED69
:105320005FE360913601709137018091380190916F
:1053300039010E94C8B560930501709306018093FE
:1053400007019093080120E030E040E752E40E941A
:10535000FAB2E6E2CE2EE6E0DE2E7B018C0124E1FD
:1053600036E040E156E06CE076E088E096E00E94AE
:10537000DE5A0E94336C0E947165809108069091FC
:105380000906A0910A06B0910B068093330690930C
:105390003406A0933506B093360680910C069091A2
:1053A0000D06A0910E06B0910F06809337069093DC
:1053B0003806A0933906B0933A0680911006909172
:1053C0001106A0911206B091130680933B069093AC
:1053D0003C06A0933D06B0933E0680E090E00E941C
:1053E000EA1381E090E00E94EA1382E090E00E94DC
:1053F000EA1383E396E00E948D192FE336E040E242
:1054000056E06CE176E088E196E00E949C6380E0E3
:105410000E9478653DC08091050190910601A091A0
:105420000701B09108018093300590933105A09356
:105430003205B0933305809124019091250190931A
:1054400044068093430684E690E090932501809380
:1054500024010E94951CC0902E01D0902F01E09055
:105460003001F09031018AE50E943E18882329F02E
:105470000E942A189B01AC0103C020E030E0A90182
:10548000C701B6010E941AB20E94A51E0E940F1DFC
:105490008091300590913105A0913205B09133058E
:1054A0008093050190930601A0930701B093080132
:1054B00080914306909144069093250180932401A6
:1054C0000FB6F8948091A3109091A410A091A5100C
:1054D000B091A6100FBE80938F0390939003A0937A
:1054E0009103B09392030E9471650C94DE36109282
:1054F00023050C94DE3681E0809323050C94DE3680
:1055000085E40E943E18811102C00E94336C65EF51
:10551000C62E62E0D62E77E2E72E76E0F72E03E382
:1055200016E0B12CF60181916F010E943E1888238C
:1055300039F1F3E0BF120CC00E942A18F801608311
:105540007183828393838FE396E00E94416418C045
:105550000E942A18F70120813181428153810E94E3
:105560001AB2F80160837183828393832FE336E05C
:105570004BE356E067E376E083E396E00E949C63AA
:10558000B394F4E0EF0EF11C0C5F1F4F24E0B21255
:10559000C9CF0C94DE368DE40E943E18882311F4A6
:1055A0000C941D360E942A180E9462B36B36710556
:1055B00009F4F3C60CF0D9C06C31710509F45DC271
:1055C000CCF56531710509F425C2CCF46131710562
:1055D00009F4F1C134F46230710508F478C10C9417
:1055E000DE366231710509F4FEC66431710511F0D1
:1055F0000C94DE36EDE4F5E064918F01E6C168318C
:10560000710509F4CFC254F46631710509F408C27A
:105610006731710509F40AC20C94DE366A317105EE
:1056200009F417C20CF023C289E496E00E94DF4B14
:105630000C94DE366335710509F4D1C60CF064C0F4
:105640006032710509F48CC20CF052C06E317105E4
:1056500009F448C26F31710511F00C94DE360FB6B3
:10566000F8948091A3109091A410A091A510B091EE
:10567000A6100FBE8093830390938403A0938503A9
:10568000B09386034091870350918803609189030A
:1056900070918A038C019D01041B150B260B370B9F
:1056A000C901B80128EE33E040E050E00E94C4B6E2
:1056B000CA01B9012CE330E040E050E00E94C4B6DA
:1056C0007F936F933F932F9380E395E09F938F9306
:1056D000CE0101969F938F930E9475BAE4E3F8E0A0
:1056E00064910FB6F894DEBF0FBECDBF8F01A7C285
:1056F0006135710509F456C60CF06EC66A32710543
:1057000009F4E3C20C94DE366C35710509F49DC6CC
:1057100004F56435710509F466C66535710511F047
:105720000C94DE3683E50E943E180E942A1820E081
:1057300030E04AE754E40E94C8B50E9467B3609322
:105740008B0370938C0380938D0390938E030C9442
:10575000DE366936710509F412C30CF0F0C56836FF
:10576000710509F4DDC20C94DE366D3C710511F44F
:105770000C9473340CF055C06837710509F4E7C711
:1057800064F56337710509F4E1C674F46D3671058B
:1057900009F412C46237710511F00C94DE36E1E1B0
:1057A000F4E064918F01F6C66537710509F4DEC631
:1057B0006737710511F00C94DE366CE672E08EEA04
:1057C00090E10E949E0D6AE08EEA90E10E94AE0D8B
:1057D000EFEEF3E064918F01C0C76E3B710509F4F1
:1057E00092C454F46937710509F4B3C76C38710574
:1057F00009F4B4C20C94DE366B3C710511F40C94C0
:10580000373414F00C945334693C710511F00C9446
:10581000DE3605EF12E040E7E42E4FE0F42E0C9464
:105820001D34603931E0730711F40C94FD352CF50B
:105830006D3D710511F40C94FC3464F46E3C7105FB
:1058400011F40C94D1346C3D710511F40C94ED34C9
:105850000C94DE366E3291E0790711F40C94B73572
:105860006F32E1E07E0711F40C94C5356D32714062
:1058700011F00C94DE360C940B35663F01E0700796
:1058800011F40C9403367CF4643F21E0720711F4A8
:105890000C940036653F714011F00C94DE360E9486
:1058A00002130C94DE36603A83E0780709F493C162
:1058B000673E93E0790711F40C940636673F714018
:1058C00011F00C94DE360E94F40E0C94DE3685E75F
:1058D00095E00E94F48780E50E943E18882339F005
:1058E0000E942A180E9467B36B017C0103C0C12C7F
:1058F000D12C760183E50E943E18882361F00E9436
:105900002A1820E030E04AE754E40E94C8B50E941B
:1059100067B36B017C010E94336C0FB6F8948091E1
:10592000A3109091A410A091A510B091A6100FBE45
:1059300080938F0390939003A0939103B09392036D
:10594000C114D104E104F10429F10FB6F894809058
:10595000A3109090A410A090A510B090A6100FBE18
:105960008C0C9D1CAE1CBF1C0FB6F8948091A3102C
:105970009091A410A091A510B091A6100FBE88150B
:105980009905AA05BB0588F40E94D48981110DC030
:105990000C94E1360E94D489811107C00E947A6E6E
:1059A0000E94D4220E941489F5CF86E695E00E94D9
:1059B000F4870C94DE368DE595E00E94F4877698A6
:1059C0007798479843980C94DE36662349F08EEA20
:1059D00090E10E94AE0D0F5F1F4FF8016491F5CF6B
:1059E0006AE08EEA90E10E94AE0D89E496E00E94A2
:1059F000BB4AEFE3F5E064918F01662311F40C9448
:105A0000B1358EEA90E10E94AE0D0F5F1F4FF80195
:105A10006491F3CF89E496E00E940E4B0C94DE363D
:105A200089E496E00E94D44B0C94DE3600919303F7
:105A3000109194030C5F1F4F6AE270E0C8010E944E
:105A400046BA009719F0FC013197108241E0B80185
:105A500043C080914C06882311F40C94DE3683E514
:105A60000E943E1881110C94E9360C94DE3689E4CC
:105A700096E00E94D04E0C94DE3680919303909174
:105A800094036AE270E004960E9446BA8C01009783
:105A9000E1F020919D0330919E0340E6429FC001BA
:105AA000439F900D11246EE470E08D559C4F0E9431
:105AB00046BA60E270E00E9446BA01969093940361
:105AC00080939303F8013197108260919303709152
:105AD00094036C5F7F4F40E089E496E00E94E44BC2
